:100000009DC10000B8C10000B6C10000B4C100002D
:10001000B2C10000B0C10000AEC10000ACC1000020
:10002000AAC10000A8C100000C94FD1A0C94C91BC1
:100030000C947916A0C100009EC100009CC1000074
:100040009AC1000098C1000096C1000094C1000050
:1000500092C100000C94F0168EC100008CC100000B
:100060008AC1000088C1000086C1000084C1000070
:1000700082C1000080C100007EC100007CC1000080
:100080007AC1000078C1000076C1000074C1000090
:1000900072C1000070C100006EC100006CC10000A0
:1000A0006AC1000068C1000066C1000035001E0082
:1000B0001F0020002100220023002400250026002C
:1000C00027002A002D002E002B0014001A00080023
:1000D000150017001C0018000C00120013002F0060
:1000E00031003000390004001600070009000A0042
:1000F0000B000D000E000F0033002800340000003C
:10010000E1001D001B000600190005001100100091
:1001100036003700380000000000E500E000E30092
:100120000000E20000002C0000000000E600215268
:10013000650000000000E40029003A003B003C009C
:100140003D003E003F0040004100420043004400AB
:1001500045004C000100A9005200AA000100010066
:100160000100010001000100010001000100010087
:100170000100500051004F0001000100010001008A
:100180000100010001000100010000000100010068
:100190000100010001000100010001000100010057
:1001A000010000000000010001000100000001004A
:1001B000000001000000000001000100010000003B
:1001C000000001000C036A0061006D003600310080
:1001D00000001C036D00610079006E006F0072006A
:1001E000200072006F006C00640061006E0000006F
:1001F0000403090409023B00020100A0FA090400FB
:10020000000103010100092111010001224400073E
:100210000581030800010904010001030000000931
:10022000211101000122B6000705820320000112FE
:1002300001000200000008EDFE00000001010200C4
:100240000105010902A10185020901A100050919A1
:10025000012908150025019508750181020501098C
:100260003009311581257F950275088106093815F9
:1002700081257F950175088106050C0A38021581D4
:10028000257F950175088106C0C005010980A1017F
:10029000850319012AB700150126B70095017510CD
:1002A0008100C0050C0901A101850419012AA002E1
:1002B000150126A002950175108100C005010906EF
:1002C000A1018506050719E029E715002501950814
:1002D000750181020507190029EF1500250195F028
:1002E000750181020508190129059505750191021D
:1002F000950175039101C005010906A101050719C2
:10030000E029E71500250195087501810295017521
:100310000881010507190029FF150026FF00950631
:1003200075088100050819012905150025019505A5
:1003300075019102950175039101C00011241FBE42
:10034000CFEFDAE0DEBFCDBF11E0A0E0B1E0EAEB35
:10035000FCE302C005900D92AA39B107D9F722E05B
:10036000AAE9B1E001C01D92A93CB207E1F70E94E1
:10037000E30F0C94091E44CE8230E0F46530D0F4D3
:100380004E30C0F450E09EE0699F400D511D112495
:1003900090E0919581959109867490E0FC01E40FBD
:1003A000F51FEE0FFF1FE455FF4F85919591282F04
:1003B000822F089521E090E0FBCFDECF089581E009
:1003C000089581E00895FBCF089581E0089581E0CC
:1003D0000895FDCF089508950895FDCF08950895D7
:1003E0000895A6E0B0E0E7EFF1E00C94851D4983A5
:1003F0005A839E833091A10189819A81311117C05E
:100400003E81311589F0211579F001D5182F682F1B
:1004100089819A81DBD469817A81812F0E940A0DBA
:100420002696E3E00C94A11DE2D4182FF4CFEFD46C
:1004300069817A81F3CFFC01262F4081518162814D
:10044000738184819581CDCFCF93DF93EC0161E0FF
:10045000F2DFBE01B6DF811529F061E0CE01EBDFEE
:10046000BE01B1DFDF91CF9108950F931F93CF931A
:10047000DF93EC0160E0DFDF8C01BE01ADDFBE0188
:10048000C801ABDFDF91CF911F910F9108950F93BA
:100490001F93CF93DF93EC0161E0CDDF8C01BE01B0
:1004A00094DF811106C080E0DF91CF911F910F9101
:1004B0000895BE01C8018DDF8115A9F3BE01C801F1
:1004C0000E94BE13811579F3BE01C8010E94381045
:1004D000811549F3BE01C8010E941110811519F35D
:1004E000BE01C8010E940D0E8115E9F2BE01C801CE
:1004F0000E941F0E8115B9F2BE01C8010E94390E7B
:10050000D3CF21E030E002C0220F331F8A95E2F7FB
:10051000C90197C3CF93C82F81E090E00C2E02C091
:10052000880F991F0A94E2F70E94260B8C2FE9DFAF
:10053000CF91089581E0089581E00895FBCF08955B
:10054000CF93C82F2DD38C2FF7DF8C2FF7DF8FEFB2
:1005500094E32CE0815090402040E1F700C000007F
:10056000CF91089581E0ECDF0C94141780E0E8DF70
:100570000C94251734DF0E94141617C018D030DFF2
:100580000C94181681E008950895CF93DF93D82F27
:10059000F9DFC82F811511F08D2FF6DF8C2FDF9139
:1005A000CF9108950895F1CF089580E0FCCF0E9487
:1005B0000C14F9CFCF930E940C14C82F80919C018A
:1005C0008C1771F0C0939C010E94E41660939D010A
:1005D00070939E0180939F019093A0018C2FE3DF85
:1005E000CF910895ADE0B0E0E8EFF2E00C94861D05
:1005F000488759876A877B878C879D87911115D794
:100600001F8286E0FE0138969E012F5F3F4FD90181
:1006100001900D928A95E1F78D8181110CC029819D
:100620003A814B815C816D817E818F8149D62D9687
:10063000E2E00C94A21DCE01019606DF8111EFCFFE
:10064000F6CFFC012481213019F48081918112C4FC
:100650000895611521F00E9491110C9446120E9498
:10066000D111FBCFCF93C82F811581F08450813AEF
:1006700078F48C2F0E94C014811521F08C2F0E94D9
:100680005D155ED78C2F0E9446155AD7CF910895DD
:100690008C2F805E883048F481E0C1FD84E0C0FD8D
:1006A000880FC2FD8295A2D6F0CF8C2F855A833059
:1006B00030F48C2F8452990B0E944C14E7CFEC2F0E
:1006C000E85AEB3150F4F0E0EE0FFF1FE65EFE4F0C
:1006D000808191810E947314D9CF8C2F8D5C8331DE
:1006E000A8F661E08C2FB5DFD1CF811559F1982F95
:1006F0009450913A18F40E945D1522C7982F905E8D
:10070000983050F4982F81E091FD84E090FD880F9F
:1007100092FD829571D6F1CF982F955A933020F49F
:1007200080E090E00C944C14982F985A9B3120F460
:1007300080E090E00C947314982F9D5C933110F43A
:1007400060E087CF08951F93CF93DF93182FEB01BD
:1007500089DF209731F4812FC8DFDF91CF911F917E
:1007600008958FE99FE00197F1F700C000002197FD
:10077000F0CF60E570E0893311F060E070E0E3CF26
:10078000811511F033D6DCC60895811511F034D6E9
:10079000D7C60895A0E0B0E0E0EDF3E00C94801D32
:1007A0006C01D62FC72FFC011581068102950F70B1
:1007B00012D6E82E8115E9F0E12E1115D1F08C2F1B
:1007C000807F803461F08D2F805E8830E0F08C2F48
:1007D000807E803221F4D230B0F00115A1F08091FA
:1007E000A30282FF10C082E0CFD6F5D591E0892721
:1007F000E82EEC2FE295EF70C03C78F5F0E0E55F75
:10080000F14E0C94701DE12CF4CF0C2F0F70C03101
:1008100010F00295007F111581F0011549F08D2F20
:10082000805E883010F0D11105C0802FDFD588D6CA
:100830008D2F40C0802FEBD5FACF8D2F56DF0115BD
:1008400061F08D2F805E883010F0D11103C0802FB1
:10085000D3D502C0802FE1D573D6E11409F4B3C01B
:10086000B6D580FDB0C0F6011582ABD51AD2C6014F
:1008700068D1A7D524D2A7C08C2F8F70F82EC07F47
:10088000C03219F0F29480EFF822D13038F079F1CB
:10089000111509F438C00115C9F0CACF8091A3021F
:1008A00082FD10C0111541F0F11419F08F2D9ED565
:1008B00047D680E0D7DED1CF80E017DFF11469F2B0
:1008C0008F2DC6CF111551F0013018F48F2D58DF40
:1008D000C4CF09F0C2CF8F2DBCD5BFCF0111BDCF82
:1008E0008F2D53DF8F2DC0D58F2DA5D5B6CF1115E8
:1008F00021F0063008F0B1CFE9CF053008F0ADCFD8
:100900008F2D43DFAACF0115D9F3D93349F48FEFE7
:1009100097EE23E0815090402040E1F700C00000B6
:100920008D2FE3DE9ACF8C2F86958695837081304C
:1009300060F009F092CF8D2F9C2F9370111102C09F
:1009400080E090E00E94731488CF8D2F9C2F9370CD
:10095000111102C080E090E00E944C147ECF612F04
:100960008D2F77DE7ACF8C2F8370C1F5111128C0BF
:100970004D2F429546954770440F440F2D2F2F70F1
:1009800030E0042E02C0220F331F0A94E2F780E009
:1009900090E0D4FF09C08FE090E002C0880F991F5B
:1009A0004A95E2F780959095C695C695C370822BBF
:1009B000932BC23079F0C33079F0C13049F04AD17D
:1009C0000E940C14F0DDCDB7DEB7E8E00C949C1D5E
:1009D0003AD1F6CF46D1F4CF34D1F2CF111559F137
:1009E000C0FFEECF4D2F429546954770440F440F00
:1009F0002D2F2F7030E0042E02C0220F331F0A94D7
:100A0000E2F780E090E0D4FF09C08FE090E002C000
:100A1000880F991F4A95E2F780959095C695C695DF
:100A2000C370822B932BC23061F0C33061F0C130B0
:100A300031F06AD1C5CF823008F4C2CFD3CF5DD1B7
:100A4000BFCF69D1BDCF1AD1BBCFCF70111529F05F
:100A50008C2F27D18D2F94DEB3CF8D2F96DE8C2F48
:100A60002ED1AECFD23F31F168F4D03FC1F0D13FAB
:100A700089F0111509F43EC0011509F438C08D2F15
:100A8000F1DD9ECFD33FE1F0D43F99F78091A302EF
:100A900082FD1EC08C2F8F71111511F30FC011151F
:100AA00039F0053008F08CCF8C2F8F7118D188CF9A
:100AB0000630F8CF8C2F8F711111D2CFF2D080CFAA
:100AC000111521F08C2F8F71E3D07ACFDED078CF43
:100AD000111529F063E08C2F8F713FD571CF81E024
:100AE00053D5023008F46CCF82E04ED569CF8C2FFD
:100AF0008F71E4CF011571F0D93349F48FEF97EE80
:100B000023E0815090402040E1F700C000008D2F8D
:100B1000ECDD56CF8C2F8F71A3CF0F931F93CF9304
:100B2000DF93EC01688179818D81ADD18C01FAD0A0
:100B300087D0B801CE012EDEDF91CF911F910F91AA
:100B40000895CF93DF93EC018C81811581F0CE0164
:100B50009EDC81110FC03FD4811549F08D81811534
:100B600031F08091A30282FF02C082E00DD5DF91B7
:100B7000CF910895CE01D1DFCE0177DCF8CF80E0B0
:100B800090E00E944C1480E090E00E9473144DD4D9
:100B9000D7D40E945F120C9446120E947415EFCFB6
:100BA00033D4FBCF282F92959F70963099F060F444
:100BB000925F9F70923030F4203FB1F038F481E0C2
:100BC000283E38F080E008959A5FF3CF81E0243F1B
:100BD000C9F7089591E0813F09F090E081E0283E57
:100BE00008F080E0892B089581E00895FC012481BC
:100BF000211521F0808191813DD1D4CF80E00895ED
:100C0000A6E0B0E0E6E0F6E00C94861D2696E2E071
:100C10000C94A21DA7E0B0E0E0E1F6E00C94861D84
:100C20002796E2E00C94A21D0895FECF0895FDCF13
:100C30000895FADFFCDF8093C8019093C9010895FD
:100C40000895F7CF08952091C8013091C901822BF2
:100C5000932BEFCF2091C8013091C90182239323B8
:100C6000E8CF2091C8013091C90182279327E1CFB5
:100C7000DBCF0895FDCF0895D7CF0895FDDFFADFCC
:100C80008093C6019093C701089580E090E0F6CF6D
:100C900021E030E002C0220F331F8A95E2F7C9013C
:100CA000EDCF21E030E002C0220F331F8A95E2F73A
:100CB0008091C6019091C701822B932BDFCF21E059
:100CC00030E002C0220F331F8A95E2F7209530955D
:100CD0008091C6019091C70182239323CFCF21E059
:100CE00030E002C0220F331F8A95E2F78091C601DF
:100CF0009091C70182279327C1CF2091C6013091DF
:100D0000C701822B932BBACF2091C6013091C70126
:100D100082239323B3CF2091C6013091C70182274C
:100D20009327ACCF0895CF93C1E061FDC4E060FD8F
:100D3000CC0F62FDC29593E0769567959A95E1F7A1
:100D4000660F771F660F771F460F571FFA0140E0A7
:100D500050E090E06191DF019C01042E02C03695C5
:100D600027950A94E2F72695220B26272C2326277F
:100D70002E934F5F5F4F4430510561F7CF91089537
:100D8000A82FA77023E0969587952A95E1F7880FFD
:100D9000991F880F991F680F791FFB0140E050E0F1
:100DA00080E0219130E00A2E02C0369527950A9402
:100DB000E2F72170042E01C0220F0A94EAF7822B79
:100DC0004F5F5F4F4430510561F70895262F9530EE
:100DD00068F48E3058F4682F70E08EE0989F600DB4
:100DE000711D112442EA51E0822F9DCF0895292FD1
:100DF000953058F48E3048F490E062EA71E03EE0BD
:100E0000239F800D911D1124BBCF80E00895CF92C8
:100E1000DF92FF920F931F93CF93DF936C010091AA
:100E2000C6011091C7018091C8019091C901082B9A
:100E3000192BCFE0D0E081E090E00C2E02C0880FAB
:100E4000991F0A94E2F780239123892B61F421975B
:100E500090F7F12C8F2DDF91CF911F910F91FF9083
:100E6000DF90CF900895FC2EB6018C2FDED5019730
:100E700071F3F0CFCF93DF93EC01C9DFBE01D5D57D
:100E8000DF91CF9108951F93CF93DF93EB01909162
:100E9000A101911531F0CB01EDDFDF91CF911F91D1
:100EA0000895811551F0CB01B2DF182F682FCE01C4
:100EB0008DDFBE01812FB9D5F0CFCB0198DF182F80
:100EC000F8CF0F931F930091CA018091CB0180133B
:100ED00003C01F910F91089587E0089FF00111242E
:100EE000E453FE4F208131814281538164817581B9
:100EF000868190DE0F5F1F4F0770E7CF20910402BD
:100F0000309105024091060250910702609108025B
:100F10007091090280910A027DCE80910A0280318F
:100F200070F480910902811551F0E091CA0120917D
:100F3000CB0130910502409104022E1301C00895A7
:100F4000BF0187E0E89FF0011124DF01A453BE4FE9
:100F500014968C911497811549F111968C911197E3
:100F6000831324C08C91841321C015968C911597FE
:100F700081111CC012968D919D91A0910602B09195
:100F800007028A1B9B0B883C910580F480910A0222
:100F90008F70806180930A02EE52FE4F80818F70C5
:100FA0008061808384E092E0CCDD8BCF6F5F7F4FE8
:100FB000FB01E770C2CFE091CA019091CB01E91328
:100FC00002C080E008959F0157E0E59FF0011124E1
:100FD000E453FE4F5181561306C05081581303C08D
:100FE0005581541305C02F5F3F4FF901E770E7CFDC
:100FF00081E008958F929F92AF92BF92DF92EF921D
:10100000FF920F931F93CF93DF93CDB7DEB72D974A
:101010000FB6F894DEBF0FBECDBF8C0186E0F8019D
:10102000DE01189601900D928A95E1F7F801F5809E
:10103000848194E0892E92E0992E9091080291117A
:1010400017C0811509F4EFC0F11409F42EC1C801CD
:10105000CDDD811509F429C187E0F801D4010190A3
:101060000D928A95E1F7C401ECDA57DF47DFDBC068
:10107000E080A280B380D0900902209106023091D6
:101080000702A501421B530BD11409F4CFC0483C01
:10109000510508F09EC0811509F4C5C09091050264
:1010A000918080910A02803108F065C0991226C0B3
:1010B000909104029E1122C0F11057C08F70806180
:1010C00080930A021BDF84E092E03BDD80910A02FC
:1010D000F8018683F12C8F2D2D960FB6F894DEBF84
:1010E0000FBECDBFDF91CF911F910F91FF90EF9079
:1010F000DF90BF90AF909F908F900895F11035C012
:1011000040E0692D8E2D57DF40E0692D8E2D53DF95
:10111000F82E8111DFCF88859985ACDE292F2295A5
:101120002F70903450F49F70223078F0911591F028
:10113000F8019681903170F4CECF2A5F2F70223063
:1011400070F0C801FEDCFD2CC6CF911519F0811599
:1011500009F4C1CF805E883008F4BDCFF2CF803F64
:1011600008F4B9CF815F8330F7CF80910A028160A4
:1011700080930A02AFCF991207C0909104029E118A
:1011800003C0F11409F473C0C80130DD811509F4FE
:101190008CC0F11409F489C080910A02803280F079
:1011A000209104023091050229833A83AB82BC82EC
:1011B000909108029D831E828F83CE010196C1DC2F
:1011C00087E0F801A4E0B2E001900D928A95E1F782
:1011D0004CCF90910A02903188F4488559856A85F0
:1011E0007B858C859D850CDD84E092E0AADCF40192
:1011F00087E011928A95E9F781DE6CCF811599F02D
:101200002091050281812813BFCF809104028E11A5
:10121000BBCFF110B9CF9683C80193DCF40187E00E
:1012200011928A95E9F7FF24F39455CF483C510574
:1012300008F03EC08115B9F3F114B9F1909105029F
:101240008181981329C0809104028E1125C080915C
:101250000A0280FD18C08031B0F08683807F803F15
:1012600039F08681982F907F905F8F70892B8683CD
:10127000C80167DC87E0F801A4E0B2E001900D92BC
:101280008A95E1F7F3CE87E0F801A4E0B2E001909F
:101290000D928A95E1F7C7CFC801A8DC811190CFE4
:1012A00080910A02816080930A02C8014ADCBBCFA8
:1012B000488559856A857B858C859D85A1DC97CF7E
:1012C000AEE0B0E0E6E6F9E00C94851D28873987AA
:1012D0004A875B876C877D878E87CE0108968ADE7A
:1012E0006C85811599F0611539F0288539854A8515
:1012F0005B857D858E858EDC8091CA019091CB01C6
:1013000089133DC02E96E3E00C94A11D87E09E0159
:10131000285F3F4FF90127503109D90101900D9203
:101320008A95E1F7611541F3A091CB018A2F90E0F6
:101330008395877090E0AC012091CA0124171506AF
:1013400091F097E09A9FD0011124A453BE4F9E01C3
:101350002F5F3F4FF90101900D929A95E1F740936D
:10136000CB01AFDDC9CF1CDC1092CB011092CA01BA
:10137000E4E0F2E087E011928A95E9F7BDCF17E04B
:10138000189FC001112484539E4F34DE811509F447
:10139000B9CFE091CA011E9FF0011124E453FE4F22
:1013A000208131814281538164817581868132DC63
:1013B0008091CA019091CB01019687708093CA01F8
:1013C0009BCF80913302869586958695089580916E
:1013D00033028770089590913302977081E09111E4
:1013E00001C080E0089580915F02089590915F02AE
:1013F000982B90935F0208958095982F80915F02BB
:10140000892380935F02089510925F02089590915E
:101410005E02982B90935E0208958095982F80919C
:101420005E02892380935E02089510925E02089501
:101430000895FECF089590913402292F282329F092
:101440008095892380933402F4CF08950895FECFC8
:10145000089590913502292F2823281721F0982BE1
:1014600090933502F4CF089590913502292F2823C7
:1014700029F08095892380933502E9CF08958091E2
:101480003502811521F01092350280E0E0CF0895F9
:10149000CF93C0915F0280915E02C82B809135028C
:1014A000811529F0C82B0E949A148111E8DF8C2F36
:1014B000CF910895CF93DF93C0910201D0910301A2
:1014C000E7DF8883C0910201D091030148E050E03A
:1014D0006BE272E0CE010E94C11D892B59F088E0B9
:1014E000FE01ABE2B2E001900D928A95E1F7CE01E8
:1014F0000E941B14DF91CF910895CF93DF93C09189
:101500000001D0910101C4DF8983C0910001D09115
:10151000010140E250E06BE072E0CE010E94C11D8B
:10152000892B59F080E2FE01ABE0B2E001900D9210
:101530008A95E1F7CE010E942814DF91CF9108959A
:101540000E940514811529F08091A20287FF01C035
:10155000D4CFB0CF0895FECF08959091A30292FF0B
:101560000EC0982F990F990F990F962B90933302D5
:1015700098DB80913302869586958695ECCF91CB4A
:101580001092330280E0E7CF909133028095892357
:1015900080933302282F277059F4891749F09091CE
:1015A000A30292FF05C086958695869588DBE8CFD5
:1015B00008959091A30292FB222720F9281749F061
:1015C00080FB92F99093A30282EA92E043D082E0FA
:1015D000DBCF08958091A302002482FF0394802D25
:1015E000E8CF81E0E6CF80E0E4CF80E090E0BC018E
:1015F000A7C380E090E0BC019DD3F7CFA3E0B0E0AB
:10160000E4E0FBE00C94861D4ED359D31B82CE013F
:1016100003966CD381E090E08093C8011092C901D9
:1016200071D3198284E18A83CE0101967CD3E1DFF4
:101630002396E2E00C94A21DE1CF089546C30895DD
:1016400033C3089548C3089557C308955BC30895ED
:101650005EC3089568C3089579C30895A6E0B0E015
:10166000E4E3FBE00C94841D0E94D8168C01809169
:101670006002909161028017910779F019821A82B5
:101680000E94D816BC0149815A8180E090E00E94F6
:10169000F20200936002109361022696E4E00C943B
:1016A000A01D0E94E4166093660270936702809307
:1016B0006802909369026093620270936302809360
:1016C000640290936502089508950895FDCF0895EA
:1016D0000895FEDFFBCF0895FECF08950895FEDF45
:1016E000FBCF8BE09EE07FD4F0DFF3CF81E0089565
:1016F00081E00895FBCF0895089508950895FCDFD3
:10170000FCDFFCCF9DDF811101C096DF8AE692E00D
:1017100099DF82EA92E09CDF82D496DF92DA8091B0
:10172000C6019091C701A6CA0E94CF16C7D3EADFAF
:101730000E9403140E94D202D2CFA6E0B0E0E3EAF6
:10174000FBE00C947A1DD4DF81110AC087DF0E9470
:101750000414D6D60E94DA022696EEE00C94961D6A
:10176000BCD328E9822E22E0922E740110E0F7010A
:10177000C080D180812FF5D21F5F153009F450C091
:1017800022E0E20EF11CC816D90689F380916A02A4
:1017900081FDF0D2AFDF682E10E0812FE2D27C0114
:1017A000F401A190B1904F018A159B0599F1A826EB
:1017B000BF2400E091E0C92ED12CC5018C219D21D0
:1017C000892B01F177247394C7018C219D21892BEA
:1017D00009F4712C611489F0602F812F0E943A1650
:1017E00081110BC009831A830E94D816BC0149815C
:1017F0005A8181E0972D0E94F202472D602F812FA0
:101800000E9451160F5FCC0CDD1C0E30B1F6F401B6
:10181000F292E2921F5F153009F0BFCF42DF97CFFF
:10182000C816D90609F0B2CF91CF0F931F93CF936B
:10183000DF93FDD0EC01D23508F050C0D03508F070
:10184000C8C0C03ED10530F5CD3CD10508F09DC0E3
:10185000C83AD10578F4C53AD10508F093C0C13033
:10186000D105B1F1CE010497813A910588F1C0E02C
:10187000D0E02EC0CE01885A91094B97C0F7C85AC4
:10188000D0E0CC0FDD1FC05BDE4F0990D881C02DAA
:10189000D4641EC0D034A8F4D03208F0ADC0C83E25
:1018A000D105B0F0CE0191509F3108F78D2F62D154
:1018B000082F8C2F90E0BBD0D02FDF71C82FD92BF1
:1018C00007C08C2F90E0B3D0DF70C82FD92BD06A1F
:1018D000CE01DF91CF911F910F910895C03882E51D
:1018E000D807B8F5C03682E5D80708F056C0C0342E
:1018F00082E5D807C8F4C03282E5D80708F047C0AF
:101900008C2F8695869520E2829FC0011124C3709A
:1019100021E030E002C0220F331FCA95E2F7E9014F
:10192000C82BD92BDD68D4CF8C2F869586958770F0
:1019300020E2829FC0011124C37021E030E002C088
:10194000220F331FCA95E2F7E901C82BD92BDC68B7
:10195000BFCFC03C82E5D80750F48C2F8F71C03ABE
:10196000D24580F5982F84EF906AEC01B1CFCE017B
:10197000805C9245809708F07ACFDC2FDF71C0EF52
:10198000D06AA6CFA497D064A3CFD065A1CF8C2F67
:101990008F71D82FC1EFD06A9BCF8C2F86958695FB
:1019A000877020E2829FC0011124C37021E030E0E3
:1019B00002C0220F331FCA95E2F7E901C82BD92BC9
:1019C000DA6886CFD7D0982F80E09F71EC01D06283
:1019D0007FCF8C2F8F71CED053E0CC0FDD1F5A9567
:1019E000E1F7DF70282F84FF04C090E1899F900108
:1019F0001124C22FD0696CCF8D2F8F71BBD0082FCF
:101A00008C2F90E014D0302F3F71282F392B30626B
:101A1000E9015ECF462F753028F46E3018F4672F39
:101A20000C94DD0180E090E00895F4DFFECE803E6E
:101A30009105D1F1C8F48133910509F481C048F4CE
:101A40008932910509F471C08A32910509F47FC089
:101A5000089589339105E1F082389105C9F0853305
:101A6000910509F45DC00895843E9105D1F148F4D3
:101A7000823E910531F1833E910541F181EE90E086
:101A80000895863E9105C1F1873E9105F1F10895D3
:101A90002091A202237009F064C02091A30223FFC9
:101AA00014C089E290E008952091A20220FD45C073
:101AB0003091A30230FF09C024FD24C083EE90E0E2
:101AC00008952091A20222FDF7CF08952091A2024D
:101AD00022FD44C03091A30230FD43C024FFF5CF66
:101AE00011C02091A30221FFF0CF8091A20284FDBA
:101AF00009C087EE90E008952091A20223FFE5CF70
:101B000024FFF7CF80E090E008952091A20223FD0A
:101B10002BC03091A30231FFE1CF84EE90E0089515
:101B20002091A20225FFD1CFBCCF2091A20225FD9A
:101B30001EC02091A30223FFC8CF89E390E008953F
:101B40002091A20226FFC1CF8AE290E00895209161
:101B5000A20226FFBACF81E390E0089582EE90E0E2
:101B6000089580EE90E0089586EE90E0089585E374
:101B700090E008959091A20292FF10C041E0282FBA
:101B80002471243009F040E031E0282F28712830FA
:101B900009F030E0431711F02CE0822793FF10C0CA
:101BA00041E0282F2471243109F040E031E0282F52
:101BB0002871283109F030E0431711F02CE082271A
:101BC0003091A30230FF10C051E0282F2171213045
:101BD00009F050E041E0282F2871283009F040E05A
:101BE000541711F029E0822731FF10C041E0282F5F
:101BF0002171213109F040E031E0282F287128318E
:101C000009F030E0431711F029E0822794FF02C069
:101C100083FD877E089580E00895CF939C01205E28
:101C20003245C1E02032310538F4FB01C581C111D4
:101C300003C08F710E948A028C2FCF9108959C015E
:101C4000FB018581811599F02B359CE7390769F0F7
:101C50002C359CE7390721F02A353C4721F00895BF
:101C6000B9DC80E00895BDDCFCCFBDDCFACF81E0BB
:101C700008959C01FB018581811599F021309CE735
:101C8000390761F023309CE7390739F021153C47CB
:101C900049F40E94B20280E00895D0DC0E94B602AE
:101CA000FACF81E00895089580E090E00E94D61D6B
:101CB0009C0181E0233E3E4F09F080E0089563EEF1
:101CC0007EEF80E090E00C94F51D6FEF7FEF80E0F9
:101CD00090E00C94F51DCF93DF93EC0182E090E04F
:101CE0000E94CE1D8883DF91CF910895FC01608111
:101CF00082E090E00C94DB1D83E090E00E94CE1D1A
:101D000090E00895682F83E090E00C94DB1DCF9362
:101D1000DF93EC0184E090E00E94D61D88839983D4
:101D2000DF91CF910895FC016081718184E090E0A2
:101D30000C94F51DAB01BC018FE090E00C94ED1DFF
:101D4000AB01BC0183E190E00C94ED1D682F8EE0A7
:101D500090E00C94DB1D0895FECF08950895FECF0A
:101D60000895E82FF0E0EE0FFF1FE255FD4F808150
:101D700091810895089580EA8A95F1F7089500C049
:101D80000895F9CF0895F894E82FE295EF70F0E008
:101D900041A18F7021E001C0220F8A95EAF7922FAE
:101DA0009095942391A392A1822F892B82A378945A
:101DB0000895CF93DF93C4E9D1E089918F3F09F073
:101DC000E2DF81E0C939D807C1F7C6E8D1E08991DF
:101DD0008F3F09F0D8DF81E0C439D807C1F7DF9120
:101DE000CF910895AF92BF92DF92EF92FF920F933F
:101DF0001F93CF93DF935C01D62EC62FD0E08E01C8
:101E00000C561E4FF80180818F3F09F44BC0F894A7
:101E1000E82FE295EF70F0E091A18F7021E001C012
:101E2000220F8A95EAF7892F822B81A382A1209520
:101E3000282322A37894A3DFE6E8F1E021E030E054
:101E4000E12CF12C41914F3F79F0A42FA295AF7076
:101E5000A05EB0E08C9190E04F7002C095958795A0
:101E60004A95E2F780FF28C080E090E0E82AF92A4E
:101E7000220F331F81E0E439F80721F7F801808150
:101E80008F3F09F080DF61E0E114F10409F460E0C4
:101E90008D2D77DFCC0FDD1FC5018C0F9D1FEC0151
:101EA000E882F982DF91CF911F910F91FF90EF901F
:101EB000DF90BF90AF900895C901D8CF7ADFEEEAE6
:101EC000F2E08AE011928A95E9F7E4EAF2E08AE02A
:101ED00011928A95E9F73CD03FCFAAE0B0E0E3E762
:101EE000FFE00C94831DFE013196DF018AE01D9214
:101EF0008A95E9F710E00E2FFF2E612F802F9F2D7E
:101F000071DF812F8F5F182F8530B9F74AE050E0DD
:101F1000602F7F2D84EA92E00E94C11D41E0892B51
:101F200069F440E06EEA72E084EA92E012D0182F81
:101F300016DF812F2A96E5E00C949F1D8AE0E02FA2
:101F4000FF2DA4EAB2E001900D928A95E1F7EACF65
:101F50000895EF92FF920F931F93CF93DF938C011D
:101F60007B01C42F411571F081E080936D0220D771
:101F700080936B0290936C0280E0CDB7DEB7E6E011
:101F80000C949E1DD0916D02D115B1F380916B021E
:101F900090916C029ED6059778F34AE050E0B80124
:101FA000C7010E94C11D892B41F08AE0F801D701C9
:101FB00001900D928A95E1F7CD2F10926D028C2F32
:101FC000DCCFBBCB08958ED60E9456188ADB0E94C8
:101FD0006E18AADB0E9477180E947A18F2DF0E941E
:101FE00090188DDBF9CF80939A0190939B0108950F
:101FF00025CB089580E0B5DE817008956EDF8FEF08
:1020000096E721E0815090402040E1F700C00000B9
:1020100064DFF0DF811511F0EBDF06C70895EECF26
:102020000895CF93DF93EB0186319C47F9F4DBD918
:102030009D81911591F08A7A91E0811101C090E023
:1020400090936E02811539F085E320D579DA80E02E
:10205000DF91CF91089589E2F8CF80916E028115CA
:1020600019F085E32AD5F2CF89E2FCCF81E0F0CFE9
:10207000CF93DF93EC01FB018581811509F4C8C082
:102080009E0130572332310508F0A8C082EA92E061
:10209000DFDAFE01E150F047E232F10520F4E95EBB
:1020A000F14E0C94701D8091A20281608093A20277
:1020B0008FC08091A30288608093A30289C0809121
:1020C000A2028260F3CF8091A2028460EFCF809160
:1020D000A2028860EBCF8091A3028160EDCF809156
:1020E000A3028260E9CF8091A2028061DFCF80915C
:1020F000A2028062DBCF8091A2028064D7CF0E94CF
:10210000D0058091A2028068D1CF8091A2028C601C
:10211000CDCF8091A3028360CFCF8091A2028E7F2A
:10212000C5CF8091A302877FC7CF8091A2028D7F08
:10213000BDCF8091A2028B7FB9CF8091A202877F11
:10214000B5CF8091A3028E7FB7CF8091A3028D7F00
:10215000B3CF8091A2028F7EA9CF8091A2028F7D02
:10216000A5CF8091A2028F7BA1CF0E94D005809144
:10217000A2028F779BCF8091A202837F97CF80911D
:10218000A3028C7F99CF9091A202892F8B7F92FF1F
:102190008460877F92FF886089CF8091A302982F07
:1021A000909590FB80F990FB81F986CF9091A202E7
:1021B000892F8F7B96FF806479CF0E94D005909104
:1021C000A202892F97FB87F9805870CF81E044DA0B
:1021D00082EA92E03FDA0E94D00580E0DF91CF9161
:1021E000089580E0F4CF9091A202892F8F7E94FF12
:1021F00080615CCF9091A202892F8E7F90FF8160D9
:1022000055CF9091A302892F877F93FF886054CF89
:1022100081E0E4CF382F25EB3203C001112497FF72
:1022200004C080589109892F089580589F4FFBCF93
:102230008091750280FF0DC06091090170E0660F0A
:10224000771F6038710588F56115710581F1862F5A
:10225000089581FF07C06091090184E0689FB00183
:102260001124EFCF82FF04C06091090188E0F6CF0E
:10227000909174029115B9F0609108018091090163
:10228000961728F098E0899FB0011124DACF899F32
:10229000C001112423E0880F991F2A95E1F770E00F
:1022A0000E945D1DCECF68E0D2CF8FE7089581E018
:1022B00008958091750280FF0CC06091050170E067
:1022C00075956795759567956115710541F1862F2F
:1022D000089581FF06C06091050170E075956795CE
:1022E000F3CF6091050182FD0BC0909173029115AF
:1022F000A1F06091040180910501961738F0682FD4
:1023000070E06038710500F38FE70895899FC00180
:10231000112470E00E945D1DF4CF61E0D8CF81E010
:102320000895E82FED5CE33198F5F0E0E75CF14EBD
:102330000C94701D7DDF819580937902089578DF7C
:10234000FBCF76DF819580937802089571DFFBCF14
:10235000B0DF80937A020895ACDF8195FACFA9DFD0
:10236000819580937B020895A4DFFBCF815D990B5B
:1023700021E001C0220F8A95EAF780917702822B33
:102380008093770208958091750281608093750231
:102390000895809175028260F9CF80917502846002
:1023A000F5CF409178028D3C59F48091790287FFF6
:1023B0000DC010927902411559F41092740208C0B0
:1023C0008E3C81F48091790218169CF3411581F0BE
:1023D00080917A0290917B02892B09F056C010926D
:1023E000730208958F3C41F447FFF0CF10927802BA
:1023F000809179028115E0CF803D19F41416B4F371
:10240000E5CF90917A02893D29F41916FCF61092D5
:102410007A02DCCF8A3D19F497FFD8CFF8CF90919C
:102420007B028B3D29F497FFD1CF10927B02CECF58
:102430008C3D19F41916CCF3C9CF982F915D9830C3
:1024400078F4815D990B21E001C0220F8A95EAF7AB
:10245000822F809590917702892380937702B6CF5F
:102460008D3D31F4809175028E7F80937502AECFE1
:102470008E3D21F4809175028D7FF7CF8F3D09F05D
:10248000A5CF809175028B7FF0CF089591D49C01E8
:102490009091780280917902982B21F0209371021B
:1024A0003093720290917A0280917B02982B21F0F6
:1024B00020936F023093700286E792E0DBC1E6E77B
:1024C000F2E086E011928A95E9F710927402109278
:1024D0007302109275020895FC01828181110EC071
:1024E000838181110BC08481811108C091E08581B5
:1024F000811101C090E0892F8170089581E0FCCFA7
:10250000A6E0B0E0E6E8F2E10C94831D86E0E6E7A1
:10251000F2E09E012F5F3F4FD90101900D928A9505
:10252000E1F7109278021092790210927A021092DA
:102530007B028B819C81892B022FF32E811581F0E8
:102540008091710290917202C4D3AC019091740297
:102550009115A1F180910A018417150608F43BC07A
:102560008D819E81892B89F080916F0290917002FC
:10257000B0D3AC0190917302911509F45AC08091C7
:1025800006018417150608F462C0602F7F2D86E7C8
:1025900092E0C2D2811104C086E792E09DDF8111F2
:1025A00075DF86E0E02FFF2DA6E7B2E001900D92E7
:1025B0008A95E1F72696E5E00C949F1D20910B018A
:1025C0008AE0289F900111242417350748F69F5F61
:1025D0009093740202C09F3FD1F71B81111551F0F7
:1025E00027DE91E011160CF09FEF899F802D1124BA
:1025F000809378021C81111551F01ADE91E01116BA
:102600000CF09FEF899F802D112480937902809197
:102610007802811509F4A4CF10917902111509F4FB
:102620009FCFF8DD80937802812FF4DD80937902CB
:1026300097CF209107018AE0289F90011124241749
:10264000350708F0A2CF9F5F9093730202C09F3FAF
:10265000D1F71D81111551F02CDE91E011160CF00F
:102660009FEF899F802D112480937A028E81182FED
:10267000811551F01EDE91E011160CF09FEF899F3D
:10268000802D112480937B0280917A02811509F4B8
:102690007CCF90917B02192F911509F476CFBADD8A
:1026A00080937A02812FB6DD80937B026ECF0F93E9
:1026B0001F93CF93DF93C42FD22FFC018581811507
:1026C000C9F040937E0274D380937C0290937D0284
:1026D0008C2F805E883048F481E0C1FD84E0C0FD2D
:1026E000880FC2FD82950E94C003DF91CF911F9198
:1026F0000F91089510917E02141333C080917C02D3
:1027000090917D02E6D2883C910558F5CD2FC05EB0
:102710001D17C1F0812F805E883048F481E011FDE3
:1027200084E010FD880F12FD82950E94C503C83019
:1027300048F481E0D1FD84E0D0FD880FD2FD829580
:102740000E94C003802F0E94B90381E0D1FD84E084
:10275000D0FD880FD2FD8295C83038F60E94C5039F
:10276000C4CF8C2F805E883008F0BFCF81E0C1FDE0
:1027700084E0C0FD880FC2FD8295F0CF0F93FC016D
:10278000CB01E851FC47E730F10588F5E45BF14EF9
:102790000C94701D06E221EE41EE6AE17CE787DFD2
:1027A00080E00F91089507E225EE45EE6BE17CE7AE
:1027B000F6CF06E221EE40EE68E17CE7F0CF07E2DB
:1027C00025EE44EE69E17CE7EACF06E221EE42EE37
:1027D0006CE17CE7E4CF07E225EE46EE6DE17CE7B5
:1027E000DECF08E221E045EE6EE17CE7D8CFFB01C9
:1027F0008581811110927E0281E0D3CF8093830284
:1028000090938402089508950895EDD1982F81E062
:10281000913009F080E00895E0918302F091840204
:10282000309739F00190F081E02D309711F0099543
:10283000089580E00895E0918302F091840230973A
:1028400031F00280F381E02D309709F00995089569
:10285000E0918302F0918402309759F02481358110
:10286000232B39F026E0DC012C930480F581E02D48
:1028700009950895E0918302F0918402309759F010
:1028800026813781232B39F022E0DC012C9306804E
:10289000F781E02D09950895A3E0B0E0E2E5F4E1C9
:1028A0000C94861D209181023091820228173907ED
:1028B000B1F08093810290938202E0918302F091C3
:1028C0008402309761F00084F185E02D309739F073
:1028D00023E029838A839B83CE0101960995239661
:1028E000E2E00C94A21DA3E0B0E0E9E7F4E10C946F
:1028F000861D20917F023091800228173907B1F0A0
:1029000080937F0290938002E0918302F091840291
:10291000309761F00084F185E02D309739F024E0A4
:1029200029838A839B83CE01019609952396E2E051
:102930000C94A21DCF93DF93C0910201D0910301AB
:1029400064DF811521F08091A20287FD11C09E01F4
:102950002E5F3F4F96E080E09150F90140812F5F5C
:102960003F4F41118F5F9111F7CFDF91CF910895C4
:1029700020910001309101012E5F3F4F9EE1EBCF8E
:10298000CF93C82F811102C080E02EC03EDF811599
:1029900021F08091A20287FD0FC0809102019091E9
:1029A0000301FC013296089620812C17F9F031962C
:1029B000E817F907C9F7E8CF8C2F86958695869595
:1029C000C03F10F7E0910001F0910101E80FF11D07
:1029D000228130E0C77081E001C0880FCA95EAF714
:1029E000282381E0232B81F2CF91089581E0FCCF51
:1029F0009C01FC01329680E09FEF4081461759F020
:102A000031969F3F19F4411101C0982F8F5F863096
:102A1000A1F79F3F09F40895290F311D97FD3A95BD
:102A2000F90162830895FC013296089621912613DC
:102A300002C0DF011E92E817F907C1F70895262F9B
:102A4000269526952695603F60F4820F911DFC0126
:102A5000677021E001C0220F6A95EAF78281822B1C
:102A600082830895262F269526952695603F68F443
:102A7000820F911DFC019DEF61FD97EF60FF959521
:102A800062FD92958281892382830895CF93C82F16
:102A9000BCDE6C2F811559F08091A20287FF07C020
:102AA0008091000190910101CADFCF91089580913A
:102AB0000201909103019CDFF8CFCF93C82FA5DED0
:102AC0006C2F811559F08091A20287FF07C0809179
:102AD000000190910101C6DFCF910895809102011C
:102AE00090910301A0DFF8CF90DE811571F0809105
:102AF000A20287FF0AC0E0910001F0910101329625
:102B00008EE111928A95E9F70895E0910201F09122
:102B10000301329686E0F5CFDC01FB0111969C9112
:102B200011978181981322C012968C91129781156A
:102B300019F0928189131AC013968C9113978115FD
:102B400019F09381891312C015968C9115978115F0
:102B500019F0958189130AC014969C91911521F062
:102B600081E02481291303C080E001C081E08170ED
:102B700008950895FECF08958F5F80930F016091AF
:102B80000C0170910D0180910E0190910F01F2CF17
:102B900083E080930F0160910C0170910D01809191
:102BA0000E0190910F01E6CFE7CF089581E0809369
:102BB0000F0160910C0170910D0180910E019091B7
:102BC0000F01D8CFF3CF089591E0811101C090E0BB
:102BD00090930E0160910C0170910D0180910E0196
:102BE00090910F01C7CF80910E01089580930D0140
:102BF00060910C0170910D0180910E0190910F0177
:102C0000B9CF80910D01089580930C0160910C0162
:102C100070910D0180910E0190910F01ABCF8091C9
:102C20000C01089508950895FECF0895089508951C
:102C3000F9CF08950F931F93CF93DF93F7DF4DD90B
:102C4000F6DF05E812E0C0E0D0E08C2F8AD89C01C6
:102C5000F801819331938F0191E0232B09F490E0E7
:102C6000D92BCF5FC53089F78D2FDF91CF911F9181
:102C70000F910895E82FF0E0EE0FFF1FEB57FD4F87
:102C800081E090E002C0880F991F6A95E2F7BC01CD
:102C9000808191816823792381E0672B09F480E0AA
:102CA0000895411115C0E82FF0E0EE0FFF1FEB571C
:102CB000FD4F81E090E002C0880F991F6A95E2F70E
:102CC0008095909520813181822393238083918305
:102CD0000895CF93DF93EC016BD08C1B9D0BDF919C
:102CE000CF91089585B7806885BF85B7806885BF17
:102CF00008951F921FB61F9211248F939F93AF9335
:102D0000BF9380918F02811113C08091B80290917E
:102D1000B902A091BA02B091BB024196A11DB11DAA
:102D20008093B8029093B902A093BA02B093BB0209
:102D3000BF91AF919F918F911F901FBE1F901895CB
:102D40008091C002843031F10E94BA0210928F0249
:102D500088E190E020E40FB6F894A8958093600095
:102D60000FBE2093600083B7817F846083BF83B7E9
:102D7000816083BF7894889583B78E7F83BF0FB6B9
:102D8000F894A8958091600088618093600010920B
:102D900060000FBE08950E94D0050C94BE0282E030
:102DA00084BD93E095BD9AEF97BD80936E00089522
:102DB0002FB7F8948091B8029091B902A091BA020D
:102DC000B091BB022FBF08952FB7F8946091B8025D
:102DD0007091B9028091BA029091BB022FBF089501
:102DE00078941F921FB61F9211248F939F93AF93D5
:102DF000BF938091B8029091B902A091BA02B091AC
:102E0000BB020196A11DB11D8093B8029093B90237
:102E1000A093BA02B093BB02BF91AF919F918F91E3
:102E20001F901FBE1F90189587E797E780930008B3
:102E30009093010888E19AE00FB6F894A8958093E2
:102E400060000FBE90936000FFCF88E19AE00FB65C
:102E5000F894A895809360000FBE90936000FFCF18
:102E60009B01BA019091C0029430D9F48F70809385
:102E7000E9009FEF8091E80085FD06C085ED8A9509
:102E8000F1F700009150B1F78091E80085FF09C08B
:102E900040E050E0C901B6D18091E8008E77809380
:102EA000E800089543E050E0BC0182E0D9CF46E05D
:102EB00050E0BC0182E0D4CF40E250E0BC0182E0AF
:102EC000CFCFCF93DF93EC018EDE48E050E0BE0120
:102ED00081E0C6DF88E0FE01A0E9B2E001900D923A
:102EE0008A95E1F7DF91CF9108958091BF0281111A
:102EF00007C016D366D38091E20084608093E2001D
:102F000008951092BF02089551DE81E05DCE609178
:102F1000BC0281E0611101C080E03ACE9091C00214
:102F200081E0943009F080E06091BC023DCE42E047
:102F300061EC81E071D242E261EC82E06DD290916D
:102F4000C00281E0943009F080E06091BC0214CEB0
:102F50008091C202893081F148F4823009F496C030
:102F6000833009F457C0813041F008958A3009F464
:102F700080C08B3009F468C008958091C102813A05
:102F800009F047C08091E800877F8093E800809136
:102F9000C5029091C602892B59F060E080E090E074
:102FA00070E07DD18091E8008B778093E8000895F0
:102FB00068E080E992E0F4CF8091C102813249F566
:102FC0008091C5029091C602029718F58091E800A1
:102FD000877F8093E8008091E80082FF16C02091EF
:102FE000F3008091F200922F029731F48091F1006A
:102FF000813011F0863019F48091F100F7DD809175
:10300000E8008B778093E8003BC28091C002811179
:10301000E2CF08958091C102813AD9F78091C5022B
:103020009091C602892BA9F78091E800877F809351
:10303000E8008091E80080FFFCCFD5DD8093F100AF
:103040008091E8008E77DECF8091C102813209F74E
:103050008091C5029091C602892BD9F68091E80033
:10306000877F8093E8000CD28091C302ADDD0C9481
:10307000D0058091C102813261F68091E800877F9E
:103080008093E800FDD18091C402BECD8091C10241
:10309000813A09F0BECF8091E800877F8093E800F5
:1030A0008091E80080FFFCCFBADDC8CF84B7877F6E
:1030B00084BF0FB6F894A8958091600088618093D2
:1030C0006000109260000FBE80E890E00FB6F894A8
:1030D00080936100909361000FBE74CD21D271D2B4
:1030E000E2EEF0E08081846080837894CDC480E15A
:1030F00091E084CB8091C002853029F48091C00298
:10310000853011F048CE08951BDE94DD8115B1F3B2
:103110008091BE02811591F35FD00E94D005EECF61
:1031200008959A014091C7025091C80200C0492FEA
:1031300050E043305105C9F070F441305105E9F1D8
:103140004230510571F48BE390E044EF51E0F90116
:1031500040835183089541325105E9F042325105CF
:1031600019F180E090E040E0F2CF482F50E081304C
:1031700061F04230510561F0E0EFF1E04115510599
:1031800081F7849190E0AF01E2CFE2EDF1E0F9CF79
:10319000E4ECF1E0F6CF61307105A0F011F789E0C1
:1031A00090E04FE152E0D3CF6130710580F0C9F675
:1031B00086EB90E041E452E0CACF82E190E04FE23A
:1031C00052E0C5CF89E090E046E052E0C0CF84E411
:1031D00090E047EF52E0BBCF80E189BD82E189BD3D
:1031E00009B400FEFDCF8091D8008F7D8093D80078
:1031F0008091E00082608093E0008091E00081FD9A
:10320000FCCF0895AF92BF92CF92DF92FF920F93BF
:103210001F93CF93DF936C01EB018A0150D1F82EFD
:10322000811123C00115110539F0F80180819181C8
:10323000C81BD90BC80ED91EA12CB12C2097A9F000
:103240008091E80085FD21C08091E8008E77809311
:10325000E80001151105A1F0F801808191818A0D26
:103260009B1D8083918385E0F82E8F2DDF91CF9178
:103270001F910F91FF90DF90CF90BF90AF90089576
:103280001ED18115E9F2F82EF0CFF60181916F0180
:103290008093F10021978FEFA81AB80ACFCFFC01D5
:1032A0002091C7023091C8022617370720F0611518
:1032B000710569F09B0190E02115310571F49111C0
:1032C0000CC08091E80082FF38C080E008959091A2
:1032D000E8009E779093E800EDCF8091C0028115C1
:1032E000C1F18530C1F18091E80083FD30C080914B
:1032F000E80082FDE6CF8091E80080FFDDCF80917D
:10330000F3004091F200582F2115310519F0483093
:10331000510558F091E04830510509F090E0409196
:10332000E8004E774093E800C7CF81918093F10089
:10333000215031094F5F5F4FE7CF8091C002811567
:1033400041F0853041F08091E80083FFBACF81E001
:10335000089582E0089583E00895FC012091C7025A
:103360003091C8022617370720F06115710569F002
:103370009B0190E02115310571F491110CC08091F1
:10338000E80082FF39C080E008958091E8008E77E0
:103390008093E800EDCF8091C0028115C9F185309E
:1033A000C9F18091E80083FD31C08091E80082FD81
:1033B000E6CF8091E80080FFDDCF8091F30040915F
:1033C000F200582F2115310519F04830510558F0F9
:1033D00091E04830510509F090E08091E8008E7747
:1033E0008093E800C7CF84918093F10031962150FB
:1033F00031094F5F5F4FE6CF8091C002811541F0E8
:10340000853041F08091E80083FFB9CF81E00895D5
:1034100082E0089583E00895982F973028F08F7008
:103420008093E90081E008959093E900242F762F9E
:1034300050E0981731F07091EC002091ED00509120
:10344000F00021FD02C09F5FE8CF3091EB003E7F8E
:103450003093EB003091ED003D7F3093ED003091E3
:10346000EB0031603093EB007093EC002093ED00A3
:103470005093F0002091EE0027FDE5CF80E0089505
:103480008091C10287FF13C08091E80082FF06C0CF
:103490008091E8008B778093E80008958091C002C6
:1034A0008111F2CF08958091C0028115D9F38091E6
:1034B000E80080FFF8CF8091E8008E77ECCF209174
:1034C000E4003091E50095E6A9012091EC00822FFF
:1034D000817020FF06C08091E80080FF06C080E078
:1034E00008952091E80022FD1AC08091C002811544
:1034F00089F0853089F08091EB0085FD0FC0209127
:10350000E4003091E50042175307F9F29150E1F6DB
:1035100084E0089582E0089583E0089581E00895AD
:103520005FD066D0E0EEF0E0808181608083E8EDDE
:1035300080818F77808319BCA7EDB0E08C918E7F5E
:103540008C9380818F7E80831092BF020895CF93E9
:10355000DF9346D04DD0C8EDD0E088818F77888347
:1035600088818068888388818F7D888319BC1092C8
:10357000C0021092BC021092BE021092BD02E0EE98
:10358000F0E080818B7F808388818160888342E046
:1035900060E080E041DFE1EEF0E080818E7F8083BB
:1035A000E2EE808181608083808188608083E0EEAC
:1035B00080818E7F8083888180618883DF91CF9135
:1035C0000895E8EDF0E080818F7E8083E7ED8081D3
:1035D0008160808384E082BF81E08093BF02B7CFA7
:1035E000E8EDF0E080818E7F80831092E200089504
:1035F0001092DA001092E10008951F920F920FB618
:103600000F9211242F933F934F935F936F937F9368
:103610008F939F93AF93BF93EF93FF938091E100BC
:1036200082FF0AC08091E20082FF06C08091E10023
:103630008B7F8093E10027D28091DA0080FF18C051
:103640008091D80080FF14C08091DA008E7F809333
:10365000DA008091D90080FF8FC080E189BD82E1CE
:1036600089BD09B400FEFDCF81E08093C0023DDC3E
:103670008091E10080FF18C08091E20080FF14C0BB
:103680008091E2008E7F8093E2008091E200806171
:103690008093E2008091D80080628093D80019BCAA
:1036A00085E08093C00233DC8091E10084FF28C074
:1036B0008091E20084FF24C080E189BD82E189BD60
:1036C00009B400FEFDCF8091D8008F7D8093D80093
:1036D0008091E1008F7E8093E1008091E2008F7EF7
:1036E0008093E2008091E20081608093E20080910B
:1036F000BC02811509F445C084E08093C0020EDC51
:103700008091E10083FF27C08091E20083FF23C006
:103710008091E100877F8093E10082E08093C00286
:103720001092BC028091E1008E7F8093E100809135
:10373000E2008E7F8093E2008091E20080618093BE
:10374000E20042E060E080E067DE8091F0008860A7
:103750008093F000D9DBFF91EF91BF91AF919F91E2
:103760008F917F916F915F914F913F912F910F902A
:103770000FBE0F901F90189519BC1092C002C1DBAC
:1037800077CF8091E30087FF02C083E0B6CF81E06E
:10379000B4CF1F920F920FB60F9211241F932F9345
:1037A0003F934F935F936F937F938F939F93AF93C9
:1037B000BF93CF93DF93EF93FF93E9EEF0E0808127
:1037C0001091EC008F7010FB112717F9182B108245
:1037D000C0EFD0E08881877F888378941CD0E9EEA1
:1037E000F0E010828881886088831F701083FF91C9
:1037F000EF91DF91CF91BF91AF919F918F917F9189
:103800006F915F914F913F912F911F910F900FBE3C
:103810000F901F901895AAE2B0E0E0E1FCE175C1BD
:1038200081EC92E0FC0101962091F100208322E0DE
:10383000893C9207B9F78CDB8091E80083FF37C0A1
:103840008091C1029091C2029A3088F5E92FF0E090
:10385000ED5AF14E45C1803889F0823841F58091AA
:10386000C5028F70873018F58093E9008091EB00D6
:1038700085FB882780F91092E90006C08091BE027E
:10388000880F9091BD02892B9091E800977F9093CB
:10389000E8008093F1001092F1008091E8008E77AB
:1038A00022C0811115C08091C302813001F1809145
:1038B000E80083FF0AC08091E800877F8093E800DA
:1038C0008091EB0080628093EB00AA96E3E039C11F
:1038D000823069F78091C302811579F01092E90076
:1038E0008091E800877F8093E800CADDE0CF9330C5
:1038F00009F080E08093BE02F1CF8091C5028F7005
:10390000282F2150263098F68093E9002091EB0073
:1039100020FFE4CF933031F48091EB0080628093FC
:10392000EB00DCCF9091EB0090619093EB0021E0F5
:1039300001C0220F8A95EAF72093EA001092EA006C
:103940008091EB008860EBCF8111B1CF8091C302F1
:103950008F77182F8091E3008078812B8093E3008C
:103960008091E800877F8093E8008ADD8091E800FD
:1039700080FFFCCF8091E30080688093E30083E0C8
:10398000111101C082E08093C00291CF8058823033
:1039900008F08DCF8091C3029091C4028C3D23E04A
:1039A000920789F583E08A838AE289834FB7F89486
:1039B000DE01139620E03EE051E2E32FF0E0509369
:1039C0005700849120FF03C082958F703F5F8F70F6
:1039D0008A30B8F0895C8D931D922F5F243169F78E
:1039E0004FBF8091E800877F8093E8006AE270E033
:1039F000CE01019654DC8091E8008B778093E8003B
:103A000056CF805DE8CF6091C5027091C602AE01CD
:103A10004F5F5F4F86DBBC01892B09F448CF909143
:103A2000E800977F9093E80089819A8196DCE3CF44
:103A3000803809F03CCF8091E800877F8093E800D0
:103A40008091BC028093F10028CF811130CF9091FA
:103A5000C302923008F02BCF8091E800877F8093DB
:103A6000E8009093BC020CDD8091BC02811529F026
:103A700084E08093C0025BDA1ACF8091E30087FD77
:103A8000F7CF81E0F6CF0895CF938091C0028115E2
:103A900091F08091E900C091EC008F70C0FBCC27C1
:103AA000C7F9C82B1092E9008091E80083FDB3DECE
:103AB000CF70C093E900CF91089597FB072E16F4BD
:103AC000009406D077FD08D048D007FC05D03EF41E
:103AD000909581959F4F0895709561957F4F0895BA
:103AE000EE0FFF1F0590F491E02D09942F923F9265
:103AF0004F925F926F927F928F929F92AF92BF92FE
:103B0000CF92DF92EF92FF920F931F93CF93DF93A9
:103B1000CDB7DEB7CA1BDB0B0FB6F894DEBF0FBE06
:103B2000CDBF09942A88398848885F846E847D8453
:103B30008C849B84AA84B984C884DF80EE80FD8055
:103B40000C811B81AA81B981CE0FD11D0FB6F894CB
:103B5000DEBF0FBECDBFED010895AA1BBB1B51E117
:103B600007C0AA1FBB1FA617B70710F0A61BB70BED
:103B7000881F991F5A95A9F780959095BC01CD0192
:103B80000895FB01DC0104C08D910190801921F49E
:103B900041505040C8F7881B990B0895F999FECF02
:103BA00092BD81BDF89A992780B50895A8E1B0E04B
:103BB00042E050E020C0262FF999FECF92BD81BD92
:103BC000F89A019700B4021639F01FBA20BD0FB65B
:103BD000F894FA9AF99A0FBE08950396272FECDF0E
:103BE000EADF252FE9DF242FE7CF0196272FE4DF37
:103BF000E2CFDC01CB01FC01F999FECF06C0F2BD9A
:103C0000E1BDF89A319600B40D9241505040B8F79A
:103C10000895F894FFCF050405043C043C04930484
:103C2000AF042D042D04B3042505320532058D1093
:103C3000FA1095105F106310991067109D10A9106D
:103C40007310F3107710AD107B10B110D6107F10E9
:103C5000B510DD108510BB10C3106B10A1106F10D4
:103C6000A5108910BF10CD10E610F1105910911059
:103C700001119A119F11A111A611B611B611B61119
:103C8000B611B611B611B611B611A811AC11AF111B
:103C9000B411C311C911CD11D913DF13CA13D31332
:103CA000E513EB13F1132B1C511C571C511C571C13
:0A3CB000A41CC61C571C181D251D7E
:103CBA0036025602280850011E0A140100000100AB
:103CCA00011661175C1757175217E200E900EA005C
:103CDA00B500B600B700CD008301CC008A0192017D
:103CEA0094012102230224022502260227022A0223
:103CFA00B300B4006F0070009F01CB019F02A002C5
:103D0A00E200E900EA00B500B600B700CD00830181
:103D1A00CC008A0192019401210223022402250285
:103D2A00260227022A02B300B4006F0070009F0126
:103D3A00CB019F02A0023435909192939495969765
:0A3D4A00F0C6F1F4303132333600D8
:00000001FF
